{
  "address": "0x7bAb78301b0d45bb4e53576BC7eAd64f6aEe77f5",
  "abi": [
    {
      "inputs": [
        {
          "internalType": "address",
          "name": "_tokenA",
          "type": "address"
        },
        {
          "internalType": "address",
          "name": "_tokenB",
          "type": "address"
        }
      ],
      "stateMutability": "nonpayable",
      "type": "constructor"
    },
    {
      "anonymous": false,
      "inputs": [
        {
          "indexed": true,
          "internalType": "address",
          "name": "provider",
          "type": "address"
        },
        {
          "indexed": false,
          "internalType": "uint256",
          "name": "amountA",
          "type": "uint256"
        },
        {
          "indexed": false,
          "internalType": "uint256",
          "name": "amountB",
          "type": "uint256"
        },
        {
          "indexed": false,
          "internalType": "uint256",
          "name": "liquidityMinted",
          "type": "uint256"
        }
      ],
      "name": "LiquidityAdded",
      "type": "event"
    },
    {
      "anonymous": false,
      "inputs": [
        {
          "indexed": true,
          "internalType": "address",
          "name": "provider",
          "type": "address"
        },
        {
          "indexed": false,
          "internalType": "uint256",
          "name": "amountA",
          "type": "uint256"
        },
        {
          "indexed": false,
          "internalType": "uint256",
          "name": "amountB",
          "type": "uint256"
        },
        {
          "indexed": false,
          "internalType": "uint256",
          "name": "liquidityBurned",
          "type": "uint256"
        }
      ],
      "name": "LiquidityRemoved",
      "type": "event"
    },
    {
      "anonymous": false,
      "inputs": [
        {
          "indexed": true,
          "internalType": "address",
          "name": "user",
          "type": "address"
        },
        {
          "indexed": true,
          "internalType": "address",
          "name": "tokenIn",
          "type": "address"
        },
        {
          "indexed": false,
          "internalType": "uint256",
          "name": "amountIn",
          "type": "uint256"
        },
        {
          "indexed": false,
          "internalType": "uint256",
          "name": "amountOut",
          "type": "uint256"
        }
      ],
      "name": "Swap",
      "type": "event"
    },
    {
      "inputs": [],
      "name": "FEE_DENOMINATOR",
      "outputs": [
        {
          "internalType": "uint256",
          "name": "",
          "type": "uint256"
        }
      ],
      "stateMutability": "view",
      "type": "function"
    },
    {
      "inputs": [],
      "name": "FEE_NUMERATOR",
      "outputs": [
        {
          "internalType": "uint256",
          "name": "",
          "type": "uint256"
        }
      ],
      "stateMutability": "view",
      "type": "function"
    },
    {
      "inputs": [
        {
          "internalType": "uint256",
          "name": "amountA",
          "type": "uint256"
        },
        {
          "internalType": "uint256",
          "name": "amountB",
          "type": "uint256"
        }
      ],
      "name": "addLiquidity",
      "outputs": [
        {
          "internalType": "uint256",
          "name": "liquidityMinted",
          "type": "uint256"
        }
      ],
      "stateMutability": "nonpayable",
      "type": "function"
    },
    {
      "inputs": [],
      "name": "getReserves",
      "outputs": [
        {
          "internalType": "uint256",
          "name": "_reserveA",
          "type": "uint256"
        },
        {
          "internalType": "uint256",
          "name": "_reserveB",
          "type": "uint256"
        },
        {
          "internalType": "uint256",
          "name": "_totalLiquidity",
          "type": "uint256"
        }
      ],
      "stateMutability": "view",
      "type": "function"
    },
    {
      "inputs": [
        {
          "internalType": "address",
          "name": "tokenIn",
          "type": "address"
        },
        {
          "internalType": "uint256",
          "name": "amountIn",
          "type": "uint256"
        }
      ],
      "name": "getSwapAmount",
      "outputs": [
        {
          "internalType": "uint256",
          "name": "amountOut",
          "type": "uint256"
        }
      ],
      "stateMutability": "view",
      "type": "function"
    },
    {
      "inputs": [
        {
          "internalType": "address",
          "name": "user",
          "type": "address"
        }
      ],
      "name": "getUserLiquidity",
      "outputs": [
        {
          "internalType": "uint256",
          "name": "liquidityAmount",
          "type": "uint256"
        },
        {
          "internalType": "uint256",
          "name": "sharePercentage",
          "type": "uint256"
        }
      ],
      "stateMutability": "view",
      "type": "function"
    },
    {
      "inputs": [
        {
          "internalType": "address",
          "name": "",
          "type": "address"
        }
      ],
      "name": "liquidity",
      "outputs": [
        {
          "internalType": "uint256",
          "name": "",
          "type": "uint256"
        }
      ],
      "stateMutability": "view",
      "type": "function"
    },
    {
      "inputs": [
        {
          "internalType": "uint256",
          "name": "liquidityAmount",
          "type": "uint256"
        }
      ],
      "name": "removeLiquidity",
      "outputs": [
        {
          "internalType": "uint256",
          "name": "amountA",
          "type": "uint256"
        },
        {
          "internalType": "uint256",
          "name": "amountB",
          "type": "uint256"
        }
      ],
      "stateMutability": "nonpayable",
      "type": "function"
    },
    {
      "inputs": [],
      "name": "reserveA",
      "outputs": [
        {
          "internalType": "uint256",
          "name": "",
          "type": "uint256"
        }
      ],
      "stateMutability": "view",
      "type": "function"
    },
    {
      "inputs": [],
      "name": "reserveB",
      "outputs": [
        {
          "internalType": "uint256",
          "name": "",
          "type": "uint256"
        }
      ],
      "stateMutability": "view",
      "type": "function"
    },
    {
      "inputs": [
        {
          "internalType": "address",
          "name": "tokenIn",
          "type": "address"
        },
        {
          "internalType": "uint256",
          "name": "amountIn",
          "type": "uint256"
        }
      ],
      "name": "swap",
      "outputs": [
        {
          "internalType": "uint256",
          "name": "amountOut",
          "type": "uint256"
        }
      ],
      "stateMutability": "nonpayable",
      "type": "function"
    },
    {
      "inputs": [],
      "name": "tokenA",
      "outputs": [
        {
          "internalType": "contract IERC20",
          "name": "",
          "type": "address"
        }
      ],
      "stateMutability": "view",
      "type": "function"
    },
    {
      "inputs": [],
      "name": "tokenB",
      "outputs": [
        {
          "internalType": "contract IERC20",
          "name": "",
          "type": "address"
        }
      ],
      "stateMutability": "view",
      "type": "function"
    },
    {
      "inputs": [],
      "name": "totalLiquidity",
      "outputs": [
        {
          "internalType": "uint256",
          "name": "",
          "type": "uint256"
        }
      ],
      "stateMutability": "view",
      "type": "function"
    }
  ],
  "transactionHash": "0xfcc6da1656fee416240a71d0b0a7b229508e6f21d33210079cc8b180437f3824",
  "args": [
    "0x5F2EA3a2337734b6Ea82122A480A925A5071BC43",
    "0xC74de39eF046D19Fe5cA35C707C4B911fAFCeEBD"
  ],
  "numDeployments": 1,
  "solcInputHash": "3322716b30cd8e6ec17bf633125602c8",
  "bytecode": "0x60c060405234801561001057600080fd5b506040516200127a3803806200127a8339810160408190526100319161013b565b60016000556001600160a01b0382161580159061005657506001600160a01b03811615155b6100a75760405162461bcd60e51b815260206004820152601560248201527f496e76616c696420746f6b656e2061646472657373000000000000000000000060448201526064015b60405180910390fd5b806001600160a01b0316826001600160a01b0316036101085760405162461bcd60e51b815260206004820152601860248201527f546f6b656e73206d75737420626520646966666572656e740000000000000000604482015260640161009e565b6001600160a01b039182166080521660a05261016e565b80516001600160a01b038116811461013657600080fd5b919050565b6000806040838503121561014e57600080fd5b6101578361011f565b91506101656020840161011f565b90509250929050565b60805160a051611084620001f660003960008181610197015281816102b30152818161060b015281816107f301528181610a4501528181610af80152610b6001526000818161011d0152818161027801528181610327015281816105790152818161075b01528181610a0a01528181610ab901528181610b190152610b3f01526110846000f3fe608060405234801561001057600080fd5b50600436106100ea5760003560e01c80639c8f9f231161008c578063d004f0f711610066578063d004f0f714610214578063d73792a914610227578063dbbdd93514610230578063dc5fa6c51461024357600080fd5b80639c8f9f23146101b95780639cd441da146101e1578063b8c876b1146101f457600080fd5b806319e36f3b116100c857806319e36f3b1461016e5780631befa6db1461017757806341cd47bf1461018a5780635f64b55b1461019257600080fd5b80630902f1ac146100ef5780630fc63d101461011857806315770f9214610157575b600080fd5b600154600254600354604080519384526020840192909252908201526060015b60405180910390f35b61013f7f000000000000000000000000000000000000000000000000000000000000000081565b6040516001600160a01b03909116815260200161010f565b61016060035481565b60405190815260200161010f565b61016060025481565b610160610185366004610ef9565b61024c565b610160600381565b61013f7f000000000000000000000000000000000000000000000000000000000000000081565b6101cc6101c7366004610f23565b6103d6565b6040805192835260208301919091520161010f565b6101606101ef366004610f3c565b6106d3565b610160610202366004610f5e565b60046020526000908152604090205481565b610160610222366004610ef9565b6109de565b6101606103e881565b6101cc61023e366004610f5e565b610e3a565b61016060015481565b60008082116102765760405162461bcd60e51b815260040161026d90610f80565b60405180910390fd5b7f00000000000000000000000000000000000000000000000000000000000000006001600160a01b0316836001600160a01b031614806102e757507f00000000000000000000000000000000000000000000000000000000000000006001600160a01b0316836001600160a01b0316145b6103235760405162461bcd60e51b815260206004820152600d60248201526c24b73b30b634b2103a37b5b2b760991b604482015260640161026d565b60007f00000000000000000000000000000000000000000000000000000000000000006001600160a01b0316846001600160a01b03161490506000808261036f57600254600154610376565b6001546002545b9092509050600061038a60036103e8610fcd565b6103949087610fe0565b905060006103a28383610fe0565b90506000826103b36103e887610fe0565b6103bd9190610ff7565b90506103c9818361100a565b9998505050505050505050565b6000806103e1610e84565b600083116104015760405162461bcd60e51b815260040161026d90610f80565b336000908152600460205260409020548311156104595760405162461bcd60e51b8152602060048201526016602482015275496e73756666696369656e74206c697175696469747960501b604482015260640161026d565b6003546001546104699085610fe0565b610473919061100a565b9150600354600254846104869190610fe0565b610490919061100a565b90506000821180156104a25750600081115b6104ee5760405162461bcd60e51b815260206004820152601d60248201527f496e73756666696369656e74206c6971756964697479206275726e6564000000604482015260640161026d565b336000908152600460205260408120805485929061050d908490610fcd565b9250508190555082600360008282546105269190610fcd565b92505081905550816001600082825461053f9190610fcd565b9250508190555080600260008282546105589190610fcd565b909155505060405163a9059cbb60e01b8152336004820152602481018390527f00000000000000000000000000000000000000000000000000000000000000006001600160a01b03169063a9059cbb906044016020604051808303816000875af11580156105ca573d6000803e3d6000fd5b505050506040513d601f19601f820116820180604052508101906105ee919061102c565b5060405163a9059cbb60e01b8152336004820152602481018290527f00000000000000000000000000000000000000000000000000000000000000006001600160a01b03169063a9059cbb906044016020604051808303816000875af115801561065c573d6000803e3d6000fd5b505050506040513d601f19601f82011682018060405250810190610680919061102c565b50604080518381526020810183905290810184905233907f1dc8bb69df2b8e91fbdcbfcf93d951b3f0000f085a95fe3f7946d6161439245d9060600160405180910390a26106ce6001600055565b915091565b60006106dd610e84565b6000831180156106ed5750600082115b6107395760405162461bcd60e51b815260206004820152601e60248201527f416d6f756e7473206d7573742062652067726561746572207468616e20300000604482015260640161026d565b6040516323b872dd60e01b8152336004820152306024820152604481018490527f00000000000000000000000000000000000000000000000000000000000000006001600160a01b0316906323b872dd906064016020604051808303816000875af11580156107ac573d6000803e3d6000fd5b505050506040513d601f19601f820116820180604052508101906107d0919061102c565b506040516323b872dd60e01b8152336004820152306024820152604481018390527f00000000000000000000000000000000000000000000000000000000000000006001600160a01b0316906323b872dd906064016020604051808303816000875af1158015610844573d6000803e3d6000fd5b505050506040513d601f19601f82011682018060405250810190610868919061102c565b5060035460000361087a5750816108cc565b60006001546003548561088d9190610fe0565b610897919061100a565b90506000600254600354856108ac9190610fe0565b6108b6919061100a565b90508082106108c557806108c7565b815b925050505b6000811161091c5760405162461bcd60e51b815260206004820152601d60248201527f496e73756666696369656e74206c6971756964697479206d696e746564000000604482015260640161026d565b336000908152600460205260408120805483929061093b908490610ff7565b9250508190555080600360008282546109549190610ff7565b92505081905550826001600082825461096d9190610ff7565b9250508190555081600260008282546109869190610ff7565b9091555050604080518481526020810184905290810182905233907f64b83944e79c3ce8d4c297411de637c3e102d064677aac0c163976ebdcd6f50e9060600160405180910390a26109d86001600055565b92915050565b60006109e8610e84565b60008211610a085760405162461bcd60e51b815260040161026d90610f80565b7f00000000000000000000000000000000000000000000000000000000000000006001600160a01b0316836001600160a01b03161480610a7957507f00000000000000000000000000000000000000000000000000000000000000006001600160a01b0316836001600160a01b0316145b610ab55760405162461bcd60e51b815260206004820152600d60248201526c24b73b30b634b2103a37b5b2b760991b604482015260640161026d565b60007f00000000000000000000000000000000000000000000000000000000000000006001600160a01b0316846001600160a01b031614905060008082610b3d577f00000000000000000000000000000000000000000000000000000000000000007f0000000000000000000000000000000000000000000000000000000000000000610b80565b7f00000000000000000000000000000000000000000000000000000000000000007f00000000000000000000000000000000000000000000000000000000000000005b9150915060008084610b9757600254600154610b9e565b6001546002545b6040516323b872dd60e01b8152336004820152306024820152604481018a905291935091506001600160a01b038516906323b872dd906064016020604051808303816000875af1158015610bf6573d6000803e3d6000fd5b505050506040513d601f19601f82011682018060405250810190610c1a919061102c565b506000610c2a60036103e8610fcd565b610c349089610fe0565b90506000610c428383610fe0565b9050600082610c536103e887610fe0565b610c5d9190610ff7565b9050610c69818361100a565b985060008911610cbb5760405162461bcd60e51b815260206004820152601a60248201527f496e73756666696369656e74206f757470757420616d6f756e74000000000000604482015260640161026d565b838910610d035760405162461bcd60e51b8152602060048201526016602482015275496e73756666696369656e74206c697175696469747960501b604482015260640161026d565b8715610d3f578960016000828254610d1b9190610ff7565b925050819055508860026000828254610d349190610fcd565b90915550610d709050565b8960026000828254610d519190610ff7565b925050819055508860016000828254610d6a9190610fcd565b90915550505b60405163a9059cbb60e01b8152336004820152602481018a90526001600160a01b0387169063a9059cbb906044016020604051808303816000875af1158015610dbd573d6000803e3d6000fd5b505050506040513d601f19601f82011682018060405250810190610de1919061102c565b50604080518b8152602081018b90526001600160a01b038d169133917ffa2dda1cc1b86e41239702756b13effbc1a092b5c57e3ad320fbe4f3b13fe235910160405180910390a350505050505050506109d86001600055565b6001600160a01b038116600090815260046020526040812054600354909190610e64576000610e7d565b600354610e7383612710610fe0565b610e7d919061100a565b9050915091565b600260005403610ed65760405162461bcd60e51b815260206004820152601f60248201527f5265656e7472616e637947756172643a207265656e7472616e742063616c6c00604482015260640161026d565b6002600055565b80356001600160a01b0381168114610ef457600080fd5b919050565b60008060408385031215610f0c57600080fd5b610f1583610edd565b946020939093013593505050565b600060208284031215610f3557600080fd5b5035919050565b60008060408385031215610f4f57600080fd5b50508035926020909101359150565b600060208284031215610f7057600080fd5b610f7982610edd565b9392505050565b6020808252601d908201527f416d6f756e74206d7573742062652067726561746572207468616e2030000000604082015260600190565b634e487b7160e01b600052601160045260246000fd5b818103818111156109d8576109d8610fb7565b80820281158282048414176109d8576109d8610fb7565b808201808211156109d8576109d8610fb7565b60008261102757634e487b7160e01b600052601260045260246000fd5b500490565b60006020828403121561103e57600080fd5b81518015158114610f7957600080fdfea2646970667358221220fe37c725bc8008aeb5955e67cc87360c1490df75d2880660a12f199b35aa9b5464736f6c63430008110033",
  "devdoc": {
    "details": "Supports a single token pair with add/remove liquidity and swap functions",
    "kind": "dev",
    "methods": {
      "addLiquidity(uint256,uint256)": {
        "params": {
          "amountA": "Amount of token A to add",
          "amountB": "Amount of token B to add"
        },
        "returns": {
          "liquidityMinted": "Amount of liquidity shares minted"
        }
      },
      "constructor": {
        "params": {
          "_tokenA": "Address of first token",
          "_tokenB": "Address of second token"
        }
      },
      "getReserves()": {
        "returns": {
          "_reserveA": "Reserve of token A",
          "_reserveB": "Reserve of token B",
          "_totalLiquidity": "Total liquidity shares"
        }
      },
      "getSwapAmount(address,uint256)": {
        "params": {
          "amountIn": "Amount of token to swap in",
          "tokenIn": "Address of token to swap in"
        },
        "returns": {
          "amountOut": "Estimated amount of token to receive"
        }
      },
      "getUserLiquidity(address)": {
        "params": {
          "user": "Address to check"
        },
        "returns": {
          "liquidityAmount": "User's liquidity shares",
          "sharePercentage": "User's percentage of pool (in basis points, e.g., 1000 = 10%)"
        }
      },
      "removeLiquidity(uint256)": {
        "params": {
          "liquidityAmount": "Amount of liquidity shares to burn"
        },
        "returns": {
          "amountA": "Amount of token A returned",
          "amountB": "Amount of token B returned"
        }
      },
      "swap(address,uint256)": {
        "params": {
          "amountIn": "Amount of token to swap in",
          "tokenIn": "Address of token to swap in"
        },
        "returns": {
          "amountOut": "Amount of token received"
        }
      }
    },
    "title": "SimpleDEX",
    "version": 1
  },
  "userdoc": {
    "kind": "user",
    "methods": {
      "addLiquidity(uint256,uint256)": {
        "notice": "Add liquidity to the pool"
      },
      "constructor": {
        "notice": "Constructor sets the token pair"
      },
      "getReserves()": {
        "notice": "Get current pool state"
      },
      "getSwapAmount(address,uint256)": {
        "notice": "Calculate swap output amount (view function)"
      },
      "getUserLiquidity(address)": {
        "notice": "Get user's liquidity position"
      },
      "removeLiquidity(uint256)": {
        "notice": "Remove liquidity from the pool"
      },
      "swap(address,uint256)": {
        "notice": "Swap one token for another"
      }
    },
    "notice": "A simplified decentralized exchange using constant product AMM (x * y = k)",
    "version": 1
  },
  "storageLayout": {
    "storage": [
      {
        "astId": 10,
        "contract": "contracts/SimpleDEX.sol:SimpleDEX",
        "label": "_status",
        "offset": 0,
        "slot": "0",
        "type": "t_uint256"
      },
      {
        "astId": 157,
        "contract": "contracts/SimpleDEX.sol:SimpleDEX",
        "label": "reserveA",
        "offset": 0,
        "slot": "1",
        "type": "t_uint256"
      },
      {
        "astId": 159,
        "contract": "contracts/SimpleDEX.sol:SimpleDEX",
        "label": "reserveB",
        "offset": 0,
        "slot": "2",
        "type": "t_uint256"
      },
      {
        "astId": 161,
        "contract": "contracts/SimpleDEX.sol:SimpleDEX",
        "label": "totalLiquidity",
        "offset": 0,
        "slot": "3",
        "type": "t_uint256"
      },
      {
        "astId": 165,
        "contract": "contracts/SimpleDEX.sol:SimpleDEX",
        "label": "liquidity",
        "offset": 0,
        "slot": "4",
        "type": "t_mapping(t_address,t_uint256)"
      }
    ],
    "types": {
      "t_address": {
        "encoding": "inplace",
        "label": "address",
        "numberOfBytes": "20"
      },
      "t_mapping(t_address,t_uint256)": {
        "encoding": "mapping",
        "key": "t_address",
        "label": "mapping(address => uint256)",
        "numberOfBytes": "32",
        "value": "t_uint256"
      },
      "t_uint256": {
        "encoding": "inplace",
        "label": "uint256",
        "numberOfBytes": "32"
      }
    }
  }
}